:100AF70048656C6C6F2045766572796F6E6500533B
:100B0700484956414D204741524700416C72656143
:100B17006479204D61726B656400534841555259A1
:100B270041205741444548524100415348495348A1
:100B370020474952444841520055534552204E4F91
:080B47005420464F554E4400B6
:100A96000C173832333448455933344748380C3B01
:100AA60053484956414D2047415247000C2332399D
:100AB6003438474648333449523410475348415531
:100AC6005259412057414445485241000C2F333872
:100AD600343744464A493435474B0F574153484902
:100AE60053482047495244484152000308303030A9
:090CA600120BA0D2817F057E0033
:100CAF00E4FDFCC3ED9FEE6480F8EC648098501572
:100CBF00E4FBFA0BBB00010AEB64644A70F50DBD4F
:050CCF0000010C80DEB5
:010CD40022FD
:100BA000EF30E004D2A08002C2A0EF30E104D2A175
:100BB0008002C2A1EF30E204D2A28002C2A2EF30D2
:100BC000E304D2A38002C2A3EF30E404D2A48002E3
:100BD000C2A4EF30E504D2A58002C2A5EF30E6043E
:100BE000D2A68002C2A6EF30E703D2A722C2A72274
:070E0F007E00120CAF7F30E2
:080E1600C280120CA6C2812269
:050E44007F01020E1603
:100DAC008F67A905EF3395E0FEEF64014E7005E9FE
:100DBC0024808010AF67EF3395E0FEEF64024E7035
:090DCC0007E924C0FF120E1622F3
:100D5800E4FF120BA0C2807FC8120E0F7F32120E62
:100D68000F7F6E120E0F7F38120E167F0C120E16A2
:0A0D78007F01120E167F06020E1610
:080E3C00D280120CA6C2812233
:060C75007BFF7A0B7912EF
:060C7B008B698A6A896B97
:100C8100E4F56CF56DAB69AA6AA96B856D82856C1B
:100C910083120CD5FF600D120E3C056DE56D70E5FC
:040CA100056C80E17D
:010CA500222C
:050E49007F1C020E16E3
:050E4E007F18020E16E2
:100DD500EF30E004D2A48002C2A4EF30E104D2A532
:100DE5008002C2A5EF30E204D2A68002C2A6EF308F
:080DF500E303D2A722C2A722EA
:070DFD007E00120CAF7F0322
:0B0E0400C280120DD5120CA9C2812281
:0A0E1E00E4FF120E047F01020E042F
:040BF0008F73A90551
:100BF400EF3395E0FEEF64014E7012E92480FFF5B7
:100C0400747804A2E713D8FBF575EF801EAF73EF79
:100C14003395E0FEEF64024E701FE92480F574788A
:100C240004A2E713D8FBF575E924C0540FF576AF99
:090C340075120E04AF76120E04D5
:010C3D002294
:100C3E00E4FF120DD57FC8120DFD7F32120DFD7F20
:100C4E006E120DFD7F02120E047F02120E047F083B
:100C5E00120E04E4FF120E047F0C120E04E4FF12B7
:070C6E000E047F06020E04D4
:020D0200AE073A
:100D0400EE540FF9EE54F0FFD2807804A2E713D822
:100D1400FBFF120DD5120CA9C281AF01120DD5D261
:080D2400817F05120CAFC281B2
:010D2C0022A4
:060D2D008B6E8A6F8970D5
:100D3300E4F571F572AB6EAA6FA970857282857145
:100D430083120CD5FF600D120D020572E57270E57A
:040D5300057180E1C5
:010D57002279
:0A0E28007F01120E047F0C020E047D
:0A0E32007F01120E047F08020E0477
:040D82007FF47E017B
:100D8600E4FDFCC3ED9FEE6480F8EC64809850159A
:100D9600E4FBFA0BBB00010AEB64644A70F50DBD77
:050DA60000010C80DEDD
:010DAB002225
:100B4F00759850758920758DFDD28E120D587D01C7
:100B5F007F01120DAC7BFF7A0A79F7120C7BE4F55B
:100B6F0066C3E566940C74809480501D3098FD74B4
:100B7F000B2566F8A699740B2566F8E6F59930995A
:100B8F00FDC298C299056680D8120E4412080080E3
:010B9F00BD98
:10080000E50B64386003020893750C32E50D643320
:100810006003020893750E34E50F64487075751017
:1008200045E5116459706C751233E51364347063D7
:10083000751447E5156448705A751638E508643034
:10084000704B7BFF7A0B7906120C7B750831E4F54F
:1008500067F568120D82120E4E0568E56870020594
:1008600067C39407E5676480948040E7E4F567F523
:1008700068120D82120E490568E56870020567C3AB
:100880009407E5676480948040E70209B4120C7510
:100890000209B4E50B64326003020925750C39E5E1
:1008A0000D64346003020925750E38E50F64477046
:1008B00074751046E5116448706B751233E5136466
:1008C000347062751449E51564527059751634E533
:1008D000096430704A7BFF7A0B7921120C7B750911
:1008E00031E4F567F568120D82120E4E0568E56871
:1008F00070020567C39407E5676480948040E7E46D
:10090000F567F568120D82120E490568E5687002F8
:100910000567C39407E5676480948040E78003120D
:100920000C750209B4E50B643360030209BA750C57
:1009300038E50D643460030209BA750E37E50F64BB
:10094000447077751046E511644A706E751249E57A
:100950001364347065751435E5156447705C75165D
:100960004BE50A6430704A7BFF7A0B7931120C7BBD
:10097000750A31E4F567F568120D82120E4E0568AE
:10098000E56870020567C39407E56764809480405A
:10099000E7E4F567F568120D82120E490568E5680F
:1009A00070020567C39407E5676480948040E78020
:1009B00003120C757FD07E0780497BFF7A0B79404C
:1009C000120C7BE4F567F568120D82120E4E056875
:1009D000E56870020567C39407E56764809480400A
:1009E000E7E4F567F568120D82120E490568E568BF
:1009F00070020567C39407E5676480948040E77FD1
:090A0000E87E03120D86120E447B
:010A090022CA
:03000000020A0AE7
:0C0A0A00787FE4F6D8FD758176020A5171
:100CD500BB010CE58229F582E5833AF583E02250D4
:100CE50006E92582F8E622BBFE06E92582F8E2221E
:0D0CF500E58229F582E5833AF583E4932238
:100A1600020B4FE493A3F8E493A34003F68001F29C
:100A260008DFF48029E493A3F85407240CC8C333E1
:100A3600C4540F4420C8834004F456800146F6DFB0
:100A4600E4800B0102040810204080900A96E47EA0
:100A5600019360BCA3FF543F30E509541FFEE493A5
:100A6600A360010ECF54C025E060A840B8E493A36C
:100A7600FAE493A3F8E493A3C8C582C8CAC583CA97
:100A8600F0A3C8C582C8CAC583CADFE9DEE780BE4F
:010AF60000FF
:00000001FF
